{
  "_format": "hh-sol-artifact-1",
  "contractName": "LocalSimulation",
  "sourceName": "contracts/LocalSimulation.sol",
  "abi": [
    {
      "anonymous": false,
      "inputs": [
        {
          "indexed": true,
          "internalType": "string",
          "name": "sessionId",
          "type": "string"
        },
        {
          "indexed": true,
          "internalType": "address",
          "name": "candidate",
          "type": "address"
        },
        {
          "indexed": false,
          "internalType": "uint256",
          "name": "score",
          "type": "uint256"
        }
      ],
      "name": "ResultStored",
      "type": "event"
    },
    {
      "anonymous": false,
      "inputs": [
        {
          "indexed": true,
          "internalType": "string",
          "name": "sessionId",
          "type": "string"
        }
      ],
      "name": "ResultVerified",
      "type": "event"
    },
    {
      "inputs": [
        {
          "internalType": "string",
          "name": "sessionId",
          "type": "string"
        }
      ],
      "name": "getResult",
      "outputs": [
        {
          "internalType": "address",
          "name": "candidate",
          "type": "address"
        },
        {
          "internalType": "uint256",
          "name": "overallScore",
          "type": "uint256"
        },
        {
          "internalType": "uint256",
          "name": "timestamp",
          "type": "uint256"
        },
        {
          "internalType": "bool",
          "name": "verified",
          "type": "bool"
        }
      ],
      "stateMutability": "view",
      "type": "function"
    },
    {
      "inputs": [
        {
          "internalType": "string",
          "name": "",
          "type": "string"
        }
      ],
      "name": "results",
      "outputs": [
        {
          "internalType": "string",
          "name": "sessionId",
          "type": "string"
        },
        {
          "internalType": "address",
          "name": "candidate",
          "type": "address"
        },
        {
          "internalType": "uint256",
          "name": "overallScore",
          "type": "uint256"
        },
        {
          "internalType": "uint256",
          "name": "technicalScore",
          "type": "uint256"
        },
        {
          "internalType": "uint256",
          "name": "punctualityScore",
          "type": "uint256"
        },
        {
          "internalType": "uint256",
          "name": "adaptabilityScore",
          "type": "uint256"
        },
        {
          "internalType": "uint256",
          "name": "githubScore",
          "type": "uint256"
        },
        {
          "internalType": "uint256",
          "name": "timestamp",
          "type": "uint256"
        },
        {
          "internalType": "bool",
          "name": "verified",
          "type": "bool"
        }
      ],
      "stateMutability": "view",
      "type": "function"
    },
    {
      "inputs": [
        {
          "internalType": "string",
          "name": "sessionId",
          "type": "string"
        },
        {
          "internalType": "address",
          "name": "candidate",
          "type": "address"
        },
        {
          "internalType": "uint256",
          "name": "overallScore",
          "type": "uint256"
        },
        {
          "internalType": "uint256",
          "name": "technicalScore",
          "type": "uint256"
        },
        {
          "internalType": "uint256",
          "name": "punctualityScore",
          "type": "uint256"
        },
        {
          "internalType": "uint256",
          "name": "adaptabilityScore",
          "type": "uint256"
        },
        {
          "internalType": "uint256",
          "name": "githubScore",
          "type": "uint256"
        }
      ],
      "name": "storeResult",
      "outputs": [],
      "stateMutability": "nonpayable",
      "type": "function"
    },
    {
      "inputs": [
        {
          "internalType": "address",
          "name": "",
          "type": "address"
        },
        {
          "internalType": "uint256",
          "name": "",
          "type": "uint256"
        }
      ],
      "name": "userResults",
      "outputs": [
        {
          "internalType": "string",
          "name": "",
          "type": "string"
        }
      ],
      "stateMutability": "view",
      "type": "function"
    },
    {
      "inputs": [
        {
          "internalType": "string",
          "name": "sessionId",
          "type": "string"
        }
      ],
      "name": "verifyResult",
      "outputs": [],
      "stateMutability": "nonpayable",
      "type": "function"
    }
  ],
  "bytecode": "0x608060405234801561001057600080fd5b50610a3e806100206000396000f3fe608060405234801561001057600080fd5b50600436106100575760003560e01c8063498cc70d1461005c5780634b13d17d146100a0578063911d2130146100c8578063cd821f80146100dd578063fd80a9bc146100f0575b600080fd5b61006f61006a3660046106de565b610110565b604080516001600160a01b039095168552602085019390935291830152151560608201526080015b60405180910390f35b6100b36100ae3660046106de565b610261565b6040516100979998979695949392919061076b565b6100db6100d63660046106de565b61034a565b005b6100db6100eb3660046107e6565b6103be565b6101036100fe36600461085f565b610582565b6040516100979190610889565b6000806000806000808660405161012791906108a3565b908152602001604051809103902060405180610120016040529081600082018054610151906108bf565b80601f016020809104026020016040519081016040528092919081815260200182805461017d906108bf565b80156101ca5780601f1061019f576101008083540402835291602001916101ca565b820191906000526020600020905b8154815290600101906020018083116101ad57829003601f168201915b505050918352505060018201546001600160a01b031660208083019190915260028301546040808401919091526003840154606084015260048401546080840152600584015460a0840152600684015460c0840152600784015460e08085019190915260089094015460ff161515610100938401529084015190840151928401519390910151909991985091965090945092505050565b8051602081830181018051600082529282019190930120915280548190610287906108bf565b80601f01602080910402602001604051908101604052809291908181526020018280546102b3906108bf565b80156103005780601f106102d557610100808354040283529160200191610300565b820191906000526020600020905b8154815290600101906020018083116102e357829003601f168201915b50505060018401546002850154600386015460048701546005880154600689015460078a01546008909a015498996001600160a01b03909616989497509295509093909260ff1689565b600160008260405161035c91906108a3565b908152604051908190036020018120600801805492151560ff199093169290921790915561038b9082906108a3565b604051908190038120907ffda9125923c686c2a1cd9448ad4d5e3892bd53c129f1a5f611adda3c8685055690600090a250565b606485111561040a5760405162461bcd60e51b8152602060048201526014602482015273053636f7265206d757374206265203c3d203130360641b604482015260640160405180910390fd5b604051806101200160405280888152602001876001600160a01b031681526020018681526020018581526020018481526020018381526020018281526020014281526020016000151581525060008860405161046691906108a3565b908152604051908190036020019020815181906104839082610948565b50602082810151600183810180546001600160a01b0319166001600160a01b039384161790556040808601516002860155606086015160038601556080860151600486015560a0860151600586015560c0860151600686015560e08601516007860155610100909501516008909401805460ff19169415159490941790935589166000908152828252928320805492830181558352909120016105268882610948565b50856001600160a01b03168760405161053f91906108a3565b604051908190038120878252907f89dd483a050f031016253937520b16723384183604d0fc8680eb7b2b3a5b7ba49060200160405180910390a350505050505050565b6001602052816000526040600020818154811061059e57600080fd5b906000526020600020016000915091505080546105ba906108bf565b80601f01602080910402602001604051908101604052809291908181526020018280546105e6906108bf565b80156106335780601f1061060857610100808354040283529160200191610633565b820191906000526020600020905b81548152906001019060200180831161061657829003601f168201915b505050505081565b634e487b7160e01b600052604160045260246000fd5b600082601f83011261066257600080fd5b813567ffffffffffffffff8082111561067d5761067d61063b565b604051601f8301601f19908116603f011681019082821181831017156106a5576106a561063b565b816040528381528660208588010111156106be57600080fd5b836020870160208301376000602085830101528094505050505092915050565b6000602082840312156106f057600080fd5b813567ffffffffffffffff81111561070757600080fd5b61071384828501610651565b949350505050565b60005b8381101561073657818101518382015260200161071e565b50506000910152565b6000815180845261075781602086016020860161071b565b601f01601f19169290920160200192915050565b600061012080835261077f8184018d61073f565b6001600160a01b039b909b166020840152505060408101979097526060870195909552608086019390935260a085019190915260c084015260e0830152151561010090910152919050565b80356001600160a01b03811681146107e157600080fd5b919050565b600080600080600080600060e0888a03121561080157600080fd5b873567ffffffffffffffff81111561081857600080fd5b6108248a828b01610651565b975050610833602089016107ca565b96999698505050506040850135946060810135946080820135945060a0820135935060c0909101359150565b6000806040838503121561087257600080fd5b61087b836107ca565b946020939093013593505050565b60208152600061089c602083018461073f565b9392505050565b600082516108b581846020870161071b565b9190910192915050565b600181811c908216806108d357607f821691505b6020821081036108f357634e487b7160e01b600052602260045260246000fd5b50919050565b601f82111561094357600081815260208120601f850160051c810160208610156109205750805b601f850160051c820191505b8181101561093f5782815560010161092c565b5050505b505050565b815167ffffffffffffffff8111156109625761096261063b565b6109768161097084546108bf565b846108f9565b602080601f8311600181146109ab57600084156109935750858301515b600019600386901b1c1916600185901b17855561093f565b600085815260208120601f198616915b828110156109da578886015182559484019460019091019084016109bb565b50858210156109f85787850151600019600388901b60f8161c191681555b5050505050600190811b0190555056fea2646970667358221220685db32df3c8c82f28300dc237ca74013ee34dcf11af641e8baa54534c81596064736f6c63430008130033",
  "linkReferences": {},
  "deployedLinkReferences": {}
}