{
  "_format": "hh-sol-artifact-1",
  "contractName": "LocalSimulation",
  "sourceName": "contracts/LocalSimulation.sol",
  "abi": [
    {
      "anonymous": false,
      "inputs": [
        {
          "indexed": false,
          "internalType": "string",
          "name": "sessionId",
          "type": "string"
        },
        {
          "indexed": true,
          "internalType": "address",
          "name": "candidate",
          "type": "address"
        },
        {
          "indexed": false,
          "internalType": "uint256",
          "name": "score",
          "type": "uint256"
        }
      ],
      "name": "ResultStored",
      "type": "event"
    },
    {
      "anonymous": false,
      "inputs": [
        {
          "indexed": true,
          "internalType": "string",
          "name": "sessionId",
          "type": "string"
        },
        {
          "indexed": true,
          "internalType": "address",
          "name": "verifier",
          "type": "address"
        }
      ],
      "name": "ResultVerified",
      "type": "event"
    },
    {
      "inputs": [
        {
          "internalType": "string",
          "name": "sessionId",
          "type": "string"
        }
      ],
      "name": "getResult",
      "outputs": [
        {
          "components": [
            {
              "internalType": "string",
              "name": "sessionId",
              "type": "string"
            },
            {
              "internalType": "address",
              "name": "candidate",
              "type": "address"
            },
            {
              "internalType": "uint256",
              "name": "overallScore",
              "type": "uint256"
            },
            {
              "internalType": "uint256",
              "name": "technicalScore",
              "type": "uint256"
            },
            {
              "internalType": "uint256",
              "name": "punctualityScore",
              "type": "uint256"
            },
            {
              "internalType": "uint256",
              "name": "adaptabilityScore",
              "type": "uint256"
            },
            {
              "internalType": "uint256",
              "name": "githubScore",
              "type": "uint256"
            },
            {
              "internalType": "uint256",
              "name": "timestamp",
              "type": "uint256"
            },
            {
              "internalType": "bool",
              "name": "verified",
              "type": "bool"
            }
          ],
          "internalType": "struct LocalSimulation.Result",
          "name": "",
          "type": "tuple"
        }
      ],
      "stateMutability": "view",
      "type": "function"
    },
    {
      "inputs": [
        {
          "internalType": "string",
          "name": "sessionId",
          "type": "string"
        }
      ],
      "name": "getScore",
      "outputs": [
        {
          "internalType": "uint256",
          "name": "",
          "type": "uint256"
        }
      ],
      "stateMutability": "view",
      "type": "function"
    },
    {
      "inputs": [
        {
          "internalType": "address",
          "name": "candidate",
          "type": "address"
        }
      ],
      "name": "getUserResults",
      "outputs": [
        {
          "internalType": "string[]",
          "name": "",
          "type": "string[]"
        }
      ],
      "stateMutability": "view",
      "type": "function"
    },
    {
      "inputs": [
        {
          "internalType": "string",
          "name": "sessionId",
          "type": "string"
        }
      ],
      "name": "resultExists",
      "outputs": [
        {
          "internalType": "bool",
          "name": "",
          "type": "bool"
        }
      ],
      "stateMutability": "view",
      "type": "function"
    },
    {
      "inputs": [
        {
          "internalType": "string",
          "name": "",
          "type": "string"
        }
      ],
      "name": "results",
      "outputs": [
        {
          "internalType": "string",
          "name": "sessionId",
          "type": "string"
        },
        {
          "internalType": "address",
          "name": "candidate",
          "type": "address"
        },
        {
          "internalType": "uint256",
          "name": "overallScore",
          "type": "uint256"
        },
        {
          "internalType": "uint256",
          "name": "technicalScore",
          "type": "uint256"
        },
        {
          "internalType": "uint256",
          "name": "punctualityScore",
          "type": "uint256"
        },
        {
          "internalType": "uint256",
          "name": "adaptabilityScore",
          "type": "uint256"
        },
        {
          "internalType": "uint256",
          "name": "githubScore",
          "type": "uint256"
        },
        {
          "internalType": "uint256",
          "name": "timestamp",
          "type": "uint256"
        },
        {
          "internalType": "bool",
          "name": "verified",
          "type": "bool"
        }
      ],
      "stateMutability": "view",
      "type": "function"
    },
    {
      "inputs": [
        {
          "internalType": "string",
          "name": "sessionId",
          "type": "string"
        },
        {
          "internalType": "address",
          "name": "candidate",
          "type": "address"
        },
        {
          "internalType": "uint256",
          "name": "overallScore",
          "type": "uint256"
        },
        {
          "internalType": "uint256",
          "name": "technicalScore",
          "type": "uint256"
        },
        {
          "internalType": "uint256",
          "name": "punctualityScore",
          "type": "uint256"
        },
        {
          "internalType": "uint256",
          "name": "adaptabilityScore",
          "type": "uint256"
        },
        {
          "internalType": "uint256",
          "name": "githubScore",
          "type": "uint256"
        }
      ],
      "name": "storeResult",
      "outputs": [],
      "stateMutability": "nonpayable",
      "type": "function"
    },
    {
      "inputs": [
        {
          "internalType": "address",
          "name": "",
          "type": "address"
        },
        {
          "internalType": "uint256",
          "name": "",
          "type": "uint256"
        }
      ],
      "name": "userResults",
      "outputs": [
        {
          "internalType": "string",
          "name": "",
          "type": "string"
        }
      ],
      "stateMutability": "view",
      "type": "function"
    },
    {
      "inputs": [
        {
          "internalType": "string",
          "name": "sessionId",
          "type": "string"
        }
      ],
      "name": "verifyResult",
      "outputs": [],
      "stateMutability": "nonpayable",
      "type": "function"
    }
  ],
  "bytecode": "0x608060405234801561001057600080fd5b50610fb5806100206000396000f3fe608060405234801561001057600080fd5b50600436106100885760003560e01c8063911d21301161005b578063911d21301461011b57806392bd0bd914610130578063cd821f8014610153578063fd80a9bc1461016657600080fd5b8063160202731461008d578063498cc70d146100b35780634b13d17d146100d3578063703d0133146100fb575b600080fd5b6100a061009b366004610ae6565b610186565b6040519081526020015b60405180910390f35b6100c66100c1366004610ae6565b61020d565b6040516100aa9190610b73565b6100e66100e1366004610ae6565b6103dd565b6040516100aa99989796959493929190610c0c565b61010e610109366004610c87565b6104c6565b6040516100aa9190610ca9565b61012e610129366004610ae6565b6105b5565b005b61014361013e366004610ae6565b6106f2565b60405190151581526020016100aa565b61012e610161366004610d0b565b610732565b610179610174366004610d84565b61098a565b6040516100aa9190610dae565b6000806001600160a01b03166000836040516101a29190610dc1565b908152604051908190036020019020600101546001600160a01b0316036101e45760405162461bcd60e51b81526004016101db90610ddd565b60405180910390fd5b6000826040516101f49190610dc1565b9081526020016040518091039020600201549050919050565b6102676040518061012001604052806060815260200160006001600160a01b031681526020016000815260200160008152602001600081526020016000815260200160008152602001600081526020016000151581525090565b60006001600160a01b03166000836040516102829190610dc1565b908152604051908190036020019020600101546001600160a01b0316036102bb5760405162461bcd60e51b81526004016101db90610ddd565b6000826040516102cb9190610dc1565b9081526020016040518091039020604051806101200160405290816000820180546102f590610e14565b80601f016020809104026020016040519081016040528092919081815260200182805461032190610e14565b801561036e5780601f106103435761010080835404028352916020019161036e565b820191906000526020600020905b81548152906001019060200180831161035157829003601f168201915b505050918352505060018201546001600160a01b03166020820152600282015460408201526003820154606082015260048201546080820152600582015460a0820152600682015460c0820152600782015460e082015260089091015460ff1615156101009091015292915050565b805160208183018101805160008252928201919093012091528054819061040390610e14565b80601f016020809104026020016040519081016040528092919081815260200182805461042f90610e14565b801561047c5780601f106104515761010080835404028352916020019161047c565b820191906000526020600020905b81548152906001019060200180831161045f57829003601f168201915b50505060018401546002850154600386015460048701546005880154600689015460078a01546008909a015498996001600160a01b03909616989497509295509093909260ff1689565b6001600160a01b0381166000908152600160209081526040808320805482518185028101850190935280835260609492939192909184015b828210156105aa57838290600052602060002001805461051d90610e14565b80601f016020809104026020016040519081016040528092919081815260200182805461054990610e14565b80156105965780601f1061056b57610100808354040283529160200191610596565b820191906000526020600020905b81548152906001019060200180831161057957829003601f168201915b5050505050815260200190600101906104fe565b505050509050919050565b60006001600160a01b03166000826040516105d09190610dc1565b908152604051908190036020019020600101546001600160a01b0316036106095760405162461bcd60e51b81526004016101db90610ddd565b6000816040516106199190610dc1565b9081526040519081900360200190206008015460ff161561067c5760405162461bcd60e51b815260206004820152601760248201527f526573756c7420616c726561647920766572696669656400000000000000000060448201526064016101db565b600160008260405161068e9190610dc1565b908152604051908190036020018120600801805492151560ff199093169290921790915533906106bf908390610dc1565b604051908190038120907f2207875eb03d952031bbf5b9abd205ef7dacd39b5a087e00735e05eb47542cbc90600090a350565b6000806001600160a01b031660008360405161070e9190610dc1565b908152604051908190036020019020600101546001600160a01b0316141592915050565b606485111561077a5760405162461bcd60e51b8152602060048201526014602482015273053636f7265206d757374206265203c3d203130360641b60448201526064016101db565b6001600160a01b0386166107d05760405162461bcd60e51b815260206004820152601960248201527f496e76616c69642063616e64696461746520616464726573730000000000000060448201526064016101db565b60008751116108215760405162461bcd60e51b815260206004820152601a60248201527f53657373696f6e2049442063616e6e6f7420626520656d70747900000000000060448201526064016101db565b604051806101200160405280888152602001876001600160a01b031681526020018681526020018581526020018481526020018381526020018281526020014281526020016000151581525060008860405161087d9190610dc1565b9081526040519081900360200190208151819061089a9082610e9d565b50602082810151600183810180546001600160a01b0319166001600160a01b039384161790556040808601516002860155606086015160038601556080860151600486015560a0860151600586015560c0860151600686015560e08601516007860155610100909501516008909401805460ff191694151594909417909355891660009081528282529283208054928301815583529091200161093d8882610e9d565b50856001600160a01b03167f89dd483a050f031016253937520b16723384183604d0fc8680eb7b2b3a5b7ba48887604051610979929190610f5d565b60405180910390a250505050505050565b600160205281600052604060002081815481106109a657600080fd5b906000526020600020016000915091505080546109c290610e14565b80601f01602080910402602001604051908101604052809291908181526020018280546109ee90610e14565b8015610a3b5780601f10610a1057610100808354040283529160200191610a3b565b820191906000526020600020905b815481529060010190602001808311610a1e57829003601f168201915b505050505081565b634e487b7160e01b600052604160045260246000fd5b600082601f830112610a6a57600080fd5b813567ffffffffffffffff80821115610a8557610a85610a43565b604051601f8301601f19908116603f01168101908282118183101715610aad57610aad610a43565b81604052838152866020858801011115610ac657600080fd5b836020870160208301376000602085830101528094505050505092915050565b600060208284031215610af857600080fd5b813567ffffffffffffffff811115610b0f57600080fd5b610b1b84828501610a59565b949350505050565b60005b83811015610b3e578181015183820152602001610b26565b50506000910152565b60008151808452610b5f816020860160208601610b23565b601f01601f19169290920160200192915050565b6020815260008251610120806020850152610b92610140850183610b47565b91506020850151610bae60408601826001600160a01b03169052565b506040850151606085015260608501516080850152608085015160a085015260a085015160c085015260c085015160e085015260e0850151610100818187015280870151915050610c028286018215159052565b5090949350505050565b6000610120808352610c208184018d610b47565b6001600160a01b039b909b166020840152505060408101979097526060870195909552608086019390935260a085019190915260c084015260e0830152151561010090910152919050565b80356001600160a01b0381168114610c8257600080fd5b919050565b600060208284031215610c9957600080fd5b610ca282610c6b565b9392505050565b6000602080830181845280855180835260408601915060408160051b870101925083870160005b82811015610cfe57603f19888603018452610cec858351610b47565b94509285019290850190600101610cd0565b5092979650505050505050565b600080600080600080600060e0888a031215610d2657600080fd5b873567ffffffffffffffff811115610d3d57600080fd5b610d498a828b01610a59565b975050610d5860208901610c6b565b96999698505050506040850135946060810135946080820135945060a0820135935060c0909101359150565b60008060408385031215610d9757600080fd5b610da083610c6b565b946020939093013593505050565b602081526000610ca26020830184610b47565b60008251610dd3818460208701610b23565b9190910192915050565b6020808252601d908201527f53657373696f6e20726573756c7420646f6573206e6f74206578697374000000604082015260600190565b600181811c90821680610e2857607f821691505b602082108103610e4857634e487b7160e01b600052602260045260246000fd5b50919050565b601f821115610e9857600081815260208120601f850160051c81016020861015610e755750805b601f850160051c820191505b81811015610e9457828155600101610e81565b5050505b505050565b815167ffffffffffffffff811115610eb757610eb7610a43565b610ecb81610ec58454610e14565b84610e4e565b602080601f831160018114610f005760008415610ee85750858301515b600019600386901b1c1916600185901b178555610e94565b600085815260208120601f198616915b82811015610f2f57888601518255948401946001909101908401610f10565b5085821015610f4d5787850151600019600388901b60f8161c191681555b5050505050600190811b01905550565b604081526000610f706040830185610b47565b9050826020830152939250505056fea264697066735822122068232ea5aa572dca14ccc0023273ee91b7901325e5391dab1193e1e98d63935264736f6c63430008130033",
  "linkReferences": {},
  "deployedLinkReferences": {}
}